{
  "_format": "hh-sol-artifact-1",
  "contractName": "AidDistribution",
  "sourceName": "contracts/AidDistribution.sol",
  "abi": [
    {
      "anonymous": false,
      "inputs": [
        {
          "indexed": false,
          "internalType": "uint256",
          "name": "milestoneId",
          "type": "uint256"
        },
        {
          "indexed": false,
          "internalType": "uint256",
          "name": "totalAmount",
          "type": "uint256"
        }
      ],
      "name": "AidAllocated",
      "type": "event"
    },
    {
      "anonymous": false,
      "inputs": [
        {
          "indexed": true,
          "internalType": "address",
          "name": "recipient",
          "type": "address"
        },
        {
          "indexed": false,
          "internalType": "uint256",
          "name": "milestoneId",
          "type": "uint256"
        },
        {
          "indexed": false,
          "internalType": "string",
          "name": "proofURI",
          "type": "string"
        }
      ],
      "name": "DeliveryConfirmed",
      "type": "event"
    },
    {
      "anonymous": false,
      "inputs": [
        {
          "indexed": false,
          "internalType": "uint256",
          "name": "donationId",
          "type": "uint256"
        },
        {
          "indexed": false,
          "internalType": "uint256",
          "name": "milestoneId",
          "type": "uint256"
        },
        {
          "indexed": false,
          "internalType": "string",
          "name": "logisticsDetails",
          "type": "string"
        }
      ],
      "name": "DistributionLogged",
      "type": "event"
    },
    {
      "anonymous": false,
      "inputs": [
        {
          "indexed": true,
          "internalType": "address",
          "name": "donor",
          "type": "address"
        },
        {
          "indexed": false,
          "internalType": "uint256",
          "name": "amount",
          "type": "uint256"
        },
        {
          "indexed": false,
          "internalType": "uint256",
          "name": "donationId",
          "type": "uint256"
        }
      ],
      "name": "DonationLogged",
      "type": "event"
    },
    {
      "anonymous": false,
      "inputs": [
        {
          "indexed": false,
          "internalType": "uint256",
          "name": "milestoneId",
          "type": "uint256"
        },
        {
          "indexed": false,
          "internalType": "uint256",
          "name": "timestamp",
          "type": "uint256"
        }
      ],
      "name": "MilestoneVerified",
      "type": "event"
    },
    {
      "inputs": [
        {
          "internalType": "uint256",
          "name": "milestoneId",
          "type": "uint256"
        }
      ],
      "name": "addDonation",
      "outputs": [],
      "stateMutability": "payable",
      "type": "function"
    },
    {
      "inputs": [
        {
          "internalType": "string",
          "name": "description",
          "type": "string"
        }
      ],
      "name": "addMilestone",
      "outputs": [],
      "stateMutability": "nonpayable",
      "type": "function"
    },
    {
      "inputs": [
        {
          "internalType": "uint256",
          "name": "milestoneId",
          "type": "uint256"
        }
      ],
      "name": "allocateAid",
      "outputs": [],
      "stateMutability": "nonpayable",
      "type": "function"
    },
    {
      "inputs": [
        {
          "internalType": "uint256",
          "name": "milestoneId",
          "type": "uint256"
        },
        {
          "internalType": "string",
          "name": "proofURI",
          "type": "string"
        }
      ],
      "name": "confirmDelivery",
      "outputs": [],
      "stateMutability": "nonpayable",
      "type": "function"
    },
    {
      "inputs": [
        {
          "internalType": "uint256",
          "name": "",
          "type": "uint256"
        }
      ],
      "name": "deliveryConfirmations",
      "outputs": [
        {
          "internalType": "address",
          "name": "recipient",
          "type": "address"
        },
        {
          "internalType": "uint256",
          "name": "milestoneId",
          "type": "uint256"
        },
        {
          "internalType": "bool",
          "name": "deliveryConfirmed",
          "type": "bool"
        },
        {
          "internalType": "uint256",
          "name": "confirmationAt",
          "type": "uint256"
        },
        {
          "internalType": "string",
          "name": "deliveryProofURI",
          "type": "string"
        }
      ],
      "stateMutability": "view",
      "type": "function"
    },
    {
      "inputs": [
        {
          "internalType": "uint256",
          "name": "",
          "type": "uint256"
        }
      ],
      "name": "distributions",
      "outputs": [
        {
          "internalType": "uint256",
          "name": "donationId",
          "type": "uint256"
        },
        {
          "internalType": "uint256",
          "name": "milestoneId",
          "type": "uint256"
        },
        {
          "internalType": "string",
          "name": "logisticsDetails",
          "type": "string"
        },
        {
          "internalType": "uint256",
          "name": "timestamp",
          "type": "uint256"
        },
        {
          "internalType": "bool",
          "name": "aidReleased",
          "type": "bool"
        }
      ],
      "stateMutability": "view",
      "type": "function"
    },
    {
      "inputs": [
        {
          "internalType": "uint256",
          "name": "",
          "type": "uint256"
        }
      ],
      "name": "donations",
      "outputs": [
        {
          "internalType": "address",
          "name": "donor",
          "type": "address"
        },
        {
          "internalType": "uint256",
          "name": "amount",
          "type": "uint256"
        },
        {
          "internalType": "uint256",
          "name": "timestamp",
          "type": "uint256"
        },
        {
          "internalType": "bool",
          "name": "allocated",
          "type": "bool"
        },
        {
          "internalType": "uint256",
          "name": "milestoneId",
          "type": "uint256"
        }
      ],
      "stateMutability": "view",
      "type": "function"
    },
    {
      "inputs": [
        {
          "internalType": "address",
          "name": "",
          "type": "address"
        }
      ],
      "name": "donors",
      "outputs": [
        {
          "internalType": "address",
          "name": "donorAddress",
          "type": "address"
        },
        {
          "internalType": "uint256",
          "name": "totalContributed",
          "type": "uint256"
        }
      ],
      "stateMutability": "view",
      "type": "function"
    },
    {
      "inputs": [
        {
          "internalType": "uint256",
          "name": "idx",
          "type": "uint256"
        }
      ],
      "name": "getDeliveryConfirmation",
      "outputs": [
        {
          "internalType": "address",
          "name": "",
          "type": "address"
        },
        {
          "internalType": "uint256",
          "name": "",
          "type": "uint256"
        },
        {
          "internalType": "bool",
          "name": "",
          "type": "bool"
        },
        {
          "internalType": "uint256",
          "name": "",
          "type": "uint256"
        },
        {
          "internalType": "string",
          "name": "",
          "type": "string"
        }
      ],
      "stateMutability": "view",
      "type": "function"
    },
    {
      "inputs": [
        {
          "internalType": "uint256",
          "name": "donationId",
          "type": "uint256"
        },
        {
          "internalType": "uint256",
          "name": "milestoneId",
          "type": "uint256"
        },
        {
          "internalType": "string",
          "name": "logisticsDetails",
          "type": "string"
        }
      ],
      "name": "logDistribution",
      "outputs": [],
      "stateMutability": "nonpayable",
      "type": "function"
    },
    {
      "inputs": [
        {
          "internalType": "uint256",
          "name": "",
          "type": "uint256"
        }
      ],
      "name": "milestones",
      "outputs": [
        {
          "internalType": "string",
          "name": "description",
          "type": "string"
        },
        {
          "internalType": "bool",
          "name": "completed",
          "type": "bool"
        },
        {
          "internalType": "uint256",
          "name": "completedAt",
          "type": "uint256"
        },
        {
          "internalType": "uint256",
          "name": "allocatedAmount",
          "type": "uint256"
        }
      ],
      "stateMutability": "view",
      "type": "function"
    },
    {
      "inputs": [
        {
          "internalType": "uint256",
          "name": "milestoneId",
          "type": "uint256"
        }
      ],
      "name": "verifyMilestone",
      "outputs": [],
      "stateMutability": "nonpayable",
      "type": "function"
    }
  ],
  "bytecode": "0x608060405234801561001057600080fd5b50611bfd806100206000396000f3fe6080604052600436106100a75760003560e01c8063c25f7b6311610064578063c25f7b63146101ba578063ca0cdea8146101fb578063d8251a1414610239578063e89e4ed614610255578063f06d54fe14610295578063f8626af8146102d6576100a7565b80632bb36ca2146100ac5780634487d3df146100d55780639b7a1e2b14610116578063a85f31281461013f578063ad8828b914610168578063b211838814610191575b600080fd5b3480156100b857600080fd5b506100d360048036038101906100ce919061119c565b610317565b005b3480156100e157600080fd5b506100fc60048036038101906100f7919061121b565b6103b7565b60405161010d9594939291906112f1565b60405180910390f35b34801561012257600080fd5b5061013d600480360381019061013891906113ab565b610492565b005b34801561014b57600080fd5b506101666004803603810190610161919061121b565b6105c4565b005b34801561017457600080fd5b5061018f600480360381019061018a919061121b565b6106af565b005b34801561019d57600080fd5b506101b860048036038101906101b3919061141f565b610835565b005b3480156101c657600080fd5b506101e160048036038101906101dc919061121b565b6109ce565b6040516101f29594939291906114c0565b60405180910390f35b34801561020757600080fd5b50610222600480360381019061021d9190611546565b610b4b565b604051610230929190611573565b60405180910390f35b610253600480360381019061024e919061121b565b610b8f565b005b34801561026157600080fd5b5061027c6004803603810190610277919061121b565b610dff565b60405161028c949392919061159c565b60405180910390f35b3480156102a157600080fd5b506102bc60048036038101906102b7919061121b565b610ed4565b6040516102cd9594939291906114c0565b60405180910390f35b3480156102e257600080fd5b506102fd60048036038101906102f8919061121b565b610fcf565b60405161030e9594939291906115e8565b60405180910390f35b600260405180608001604052808381526020016000151581526020016000815260200160008152509080600181540180825580915050600190039060005260206000209060040201600090919091909150600082015181600001908161037d9190611847565b5060208201518160010160006101000a81548160ff0219169083151502179055506040820151816002015560608201518160030155505050565b600381815481106103c757600080fd5b90600052602060002090600502016000915090508060000154908060010154908060020180546103f69061166a565b80601f01602080910402602001604051908101604052809291908181526020018280546104229061166a565b801561046f5780601f106104445761010080835404028352916020019161046f565b820191906000526020600020905b81548152906001019060200180831161045257829003601f168201915b5050505050908060030154908060040160009054906101000a900460ff16905085565b60036040518060a0016040528086815260200185815260200184848080601f016020809104026020016040519081016040528093929190818152602001838380828437600081840152601f19601f820116905080830192505050505050508152602001428152602001600015158152509080600181540180825580915050600190039060005260206000209060050201600090919091909150600082015181600001556020820151816001015560408201518160020190816105549190611847565b506060820151816003015560808201518160040160006101000a81548160ff02191690831515021790555050507fda97910ea55c473c1e65916764f9713744fb1224acb222a704df712d8e7463e5848484846040516105b69493929190611946565b60405180910390a150505050565b600280549050811061060b576040517f08c379a0000000000000000000000000000000000000000000000000000000008152600401610602906119d2565b60405180910390fd5b600160028281548110610621576106206119f2565b5b906000526020600020906004020160010160006101000a81548160ff021916908315150217905550426002828154811061065e5761065d6119f2565b5b9060005260206000209060040201600201819055507fbcbde959d440ac297afe28570fc77c716fb86a672a8603968abe1eda8b122b4681426040516106a4929190611a21565b60405180910390a150565b6000805b6001805490508110156107ad57600181815481106106d4576106d36119f2565b5b906000526020600020906005020160030160009054906101000a900460ff16158015610724575082600182815481106107105761070f6119f2565b5b906000526020600020906005020160040154145b1561079a57600180828154811061073e5761073d6119f2565b5b906000526020600020906005020160030160006101000a81548160ff0219169083151502179055506001818154811061077a576107796119f2565b5b906000526020600020906005020160010154826107979190611a79565b91505b80806107a590611aad565b9150506106b3565b506002805490508210156107f85780600283815481106107d0576107cf6119f2565b5b906000526020600020906004020160030160008282546107f09190611a79565b925050819055505b7f631146fee434332a334d2a3e6459cb9eca981451f2136c573f9f896d4c48c7fe8282604051610829929190611a21565b60405180910390a15050565b60046040518060a001604052803373ffffffffffffffffffffffffffffffffffffffff16815260200185815260200160011515815260200142815260200184848080601f016020809104026020016040519081016040528093929190818152602001838380828437600081840152601f19601f82011690508083019250505050505050815250908060018154018082558091505060019003906000526020600020906005020160009091909190915060008201518160000160006101000a81548173ffffffffffffffffffffffffffffffffffffffff021916908373ffffffffffffffffffffffffffffffffffffffff1602179055506020820151816001015560408201518160020160006101000a81548160ff0219169083151502179055506060820151816003015560808201518160040190816109749190611847565b5050503373ffffffffffffffffffffffffffffffffffffffff167f439658310cb094ab8e0d0efd8ca8994b15f69ef86d6294d2cb305408084bb24f8484846040516109c193929190611af5565b60405180910390a2505050565b60008060008060606000600487815481106109ec576109eb6119f2565b5b90600052602060002090600502016040518060a00160405290816000820160009054906101000a900473ffffffffffffffffffffffffffffffffffffffff1673ffffffffffffffffffffffffffffffffffffffff1673ffffffffffffffffffffffffffffffffffffffff168152602001600182015481526020016002820160009054906101000a900460ff1615151515815260200160038201548152602001600482018054610a9a9061166a565b80601f0160208091040260200160405190810160405280929190818152602001828054610ac69061166a565b8015610b135780601f10610ae857610100808354040283529160200191610b13565b820191906000526020600020905b815481529060010190602001808311610af657829003601f168201915b505050505081525050905080600001518160200151826040015183606001518460800151955095509550955095505091939590929450565b60006020528060005260406000206000915090508060000160009054906101000a900473ffffffffffffffffffffffffffffffffffffffff16908060010154905082565b60003411610bd2576040517f08c379a0000000000000000000000000000000000000000000000000000000008152600401610bc990611b73565b60405180910390fd5b60016040518060a001604052803373ffffffffffffffffffffffffffffffffffffffff16815260200134815260200142815260200160001515815260200183815250908060018154018082558091505060019003906000526020600020906005020160009091909190915060008201518160000160006101000a81548173ffffffffffffffffffffffffffffffffffffffff021916908373ffffffffffffffffffffffffffffffffffffffff160217905550602082015181600101556040820151816002015560608201518160030160006101000a81548160ff021916908315150217905550608082015181600401555050336000803373ffffffffffffffffffffffffffffffffffffffff1673ffffffffffffffffffffffffffffffffffffffff16815260200190815260200160002060000160006101000a81548173ffffffffffffffffffffffffffffffffffffffff021916908373ffffffffffffffffffffffffffffffffffffffff160217905550346000803373ffffffffffffffffffffffffffffffffffffffff1673ffffffffffffffffffffffffffffffffffffffff1681526020019081526020016000206001016000828254610d959190611a79565b925050819055503373ffffffffffffffffffffffffffffffffffffffff167f4fc04f48043c51194f29ed3f0550f7588828e241a5726991cc1917de47c6eef83460018080549050610de69190611b93565b604051610df4929190611a21565b60405180910390a250565b60028181548110610e0f57600080fd5b9060005260206000209060040201600091509050806000018054610e329061166a565b80601f0160208091040260200160405190810160405280929190818152602001828054610e5e9061166a565b8015610eab5780601f10610e8057610100808354040283529160200191610eab565b820191906000526020600020905b815481529060010190602001808311610e8e57829003601f168201915b5050505050908060010160009054906101000a900460ff16908060020154908060030154905084565b60048181548110610ee457600080fd5b90600052602060002090600502016000915090508060000160009054906101000a900473ffffffffffffffffffffffffffffffffffffffff16908060010154908060020160009054906101000a900460ff1690806003015490806004018054610f4c9061166a565b80601f0160208091040260200160405190810160405280929190818152602001828054610f789061166a565b8015610fc55780601f10610f9a57610100808354040283529160200191610fc5565b820191906000526020600020905b815481529060010190602001808311610fa857829003601f168201915b5050505050905085565b60018181548110610fdf57600080fd5b90600052602060002090600502016000915090508060000160009054906101000a900473ffffffffffffffffffffffffffffffffffffffff16908060010154908060020154908060030160009054906101000a900460ff16908060040154905085565b6000604051905090565b600080fd5b600080fd5b600080fd5b600080fd5b6000601f19601f8301169050919050565b7f4e487b7100000000000000000000000000000000000000000000000000000000600052604160045260246000fd5b6110a982611060565b810181811067ffffffffffffffff821117156110c8576110c7611071565b5b80604052505050565b60006110db611042565b90506110e782826110a0565b919050565b600067ffffffffffffffff82111561110757611106611071565b5b61111082611060565b9050602081019050919050565b82818337600083830152505050565b600061113f61113a846110ec565b6110d1565b90508281526020810184848401111561115b5761115a61105b565b5b61116684828561111d565b509392505050565b600082601f83011261118357611182611056565b5b813561119384826020860161112c565b91505092915050565b6000602082840312156111b2576111b161104c565b5b600082013567ffffffffffffffff8111156111d0576111cf611051565b5b6111dc8482850161116e565b91505092915050565b6000819050919050565b6111f8816111e5565b811461120357600080fd5b50565b600081359050611215816111ef565b92915050565b6000602082840312156112315761123061104c565b5b600061123f84828501611206565b91505092915050565b611251816111e5565b82525050565b600081519050919050565b600082825260208201905092915050565b60005b83811015611291578082015181840152602081019050611276565b60008484015250505050565b60006112a882611257565b6112b28185611262565b93506112c2818560208601611273565b6112cb81611060565b840191505092915050565b60008115159050919050565b6112eb816112d6565b82525050565b600060a0820190506113066000830188611248565b6113136020830187611248565b8181036040830152611325818661129d565b90506113346060830185611248565b61134160808301846112e2565b9695505050505050565b600080fd5b600080fd5b60008083601f84011261136b5761136a611056565b5b8235905067ffffffffffffffff8111156113885761138761134b565b5b6020830191508360018202830111156113a4576113a3611350565b5b9250929050565b600080600080606085870312156113c5576113c461104c565b5b60006113d387828801611206565b94505060206113e487828801611206565b935050604085013567ffffffffffffffff81111561140557611404611051565b5b61141187828801611355565b925092505092959194509250565b6000806000604084860312156114385761143761104c565b5b600061144686828701611206565b935050602084013567ffffffffffffffff81111561146757611466611051565b5b61147386828701611355565b92509250509250925092565b600073ffffffffffffffffffffffffffffffffffffffff82169050919050565b60006114aa8261147f565b9050919050565b6114ba8161149f565b82525050565b600060a0820190506114d560008301886114b1565b6114e26020830187611248565b6114ef60408301866112e2565b6114fc6060830185611248565b818103608083015261150e818461129d565b90509695505050505050565b6115238161149f565b811461152e57600080fd5b50565b6000813590506115408161151a565b92915050565b60006020828403121561155c5761155b61104c565b5b600061156a84828501611531565b91505092915050565b600060408201905061158860008301856114b1565b6115956020830184611248565b9392505050565b600060808201905081810360008301526115b6818761129d565b90506115c560208301866112e2565b6115d26040830185611248565b6115df6060830184611248565b95945050505050565b600060a0820190506115fd60008301886114b1565b61160a6020830187611248565b6116176040830186611248565b61162460608301856112e2565b6116316080830184611248565b9695505050505050565b7f4e487b7100000000000000000000000000000000000000000000000000000000600052602260045260246000fd5b6000600282049050600182168061168257607f821691505b6020821081036116955761169461163b565b5b50919050565b60008190508160005260206000209050919050565b60006020601f8301049050919050565b600082821b905092915050565b6000600883026116fd7fffffffffffffffffffffffffffffffffffffffffffffffffffffffffffffffff826116c0565b61170786836116c0565b95508019841693508086168417925050509392505050565b6000819050919050565b600061174461173f61173a846111e5565b61171f565b6111e5565b9050919050565b6000819050919050565b61175e83611729565b61177261176a8261174b565b8484546116cd565b825550505050565b600090565b61178761177a565b611792818484611755565b505050565b5b818110156117b6576117ab60008261177f565b600181019050611798565b5050565b601f8211156117fb576117cc8161169b565b6117d5846116b0565b810160208510156117e4578190505b6117f86117f0856116b0565b830182611797565b50505b505050565b600082821c905092915050565b600061181e60001984600802611800565b1980831691505092915050565b6000611837838361180d565b9150826002028217905092915050565b61185082611257565b67ffffffffffffffff81111561186957611868611071565b5b611873825461166a565b61187e8282856117ba565b600060209050601f8311600181146118b1576000841561189f578287015190505b6118a9858261182b565b865550611911565b601f1984166118bf8661169b565b60005b828110156118e7578489015182556001820191506020850194506020810190506118c2565b868310156119045784890151611900601f89168261180d565b8355505b6001600288020188555050505b505050505050565b60006119258385611262565b935061193283858461111d565b61193b83611060565b840190509392505050565b600060608201905061195b6000830187611248565b6119686020830186611248565b818103604083015261197b818486611919565b905095945050505050565b7f496e76616c6964206d696c6573746f6e65204944000000000000000000000000600082015250565b60006119bc601483611262565b91506119c782611986565b602082019050919050565b600060208201905081810360008301526119eb816119af565b9050919050565b7f4e487b7100000000000000000000000000000000000000000000000000000000600052603260045260246000fd5b6000604082019050611a366000830185611248565b611a436020830184611248565b9392505050565b7f4e487b7100000000000000000000000000000000000000000000000000000000600052601160045260246000fd5b6000611a84826111e5565b9150611a8f836111e5565b9250828201905080821115611aa757611aa6611a4a565b5b92915050565b6000611ab8826111e5565b91507fffffffffffffffffffffffffffffffffffffffffffffffffffffffffffffffff8203611aea57611ae9611a4a565b5b600182019050919050565b6000604082019050611b0a6000830186611248565b8181036020830152611b1d818486611919565b9050949350505050565b7f4d7573742073656e642066756e64730000000000000000000000000000000000600082015250565b6000611b5d600f83611262565b9150611b6882611b27565b602082019050919050565b60006020820190508181036000830152611b8c81611b50565b9050919050565b6000611b9e826111e5565b9150611ba9836111e5565b9250828203905081811115611bc157611bc0611a4a565b5b9291505056fea26469706673582212209a352adf3cd01094bfa6fefec94a70a31bb3eabe4a561a8ef93a42cd98ae8fe964736f6c63430008140033",
  "linkReferences": {},
  "deployedLinkReferences": {}
}